:020000040800F2
:20300000BEBA0DF0013400083CFF68D518C94FEF711520949AAA70A47C19B18528BB516B6B
:20302000376BEB41006DB554D7D08366D83B27756961C6A54B3E4DECA537393F2134000865
:20304000000000000000000000000000000000000000000000000000000000000000000070
:20306000000000000000000000000000000000000000000000000000000000000000000050
:20308000000000000000000000000000000000000000000000000000000000000000000030
:2030A000000000000000000000000000000000000000000000000000000000000000000010
:2030C0000000000000000000000000000000000000000000000000000000000000000000F0
:2030E0000000000000000000000000000000000000000000000000000000000000000000D0
:203100000000000000000000000000000000000000000000000000000000000000000000AF
:2031200000000000000000000000000000000000000000000000000000000000000000008F
:2031400000000000000000000000000000000000000000000000000000000000000000006F
:2031600000000000000000000000000000000000000000000000000000000000000000004F
:2031800000000000000000000000000000000000000000000000000000000000000000002F
:2031A00000000000000000000000000000000000000000000000000000000000000000000F
:2031C0000000000000000000000000000000000000000000000000000000000000000000EF
:2031E0000000000000000000000000000000000000000000000000000000000000000000CF
:203200000000000000000000000000000000000000000000000000000000000000000000AE
:2032200000000000000000000000000000000000000000000000000000000000000000008E
:2032400000000000000000000000000000000000000000000000000000000000000000006E
:2032600000000000000000000000000000000000000000000000000000000000000000004E
:2032800000000000000000000000000000000000000000000000000000000000000000002E
:2032A00000000000000000000000000000000000000000000000000000000000000000000E
:2032C0000000000000000000000000000000000000000000000000000000000000000000EE
:2032E0000000000000000000000000000000000000000000000000000000000000000000CE
:203300000000000000000000000000000000000000000000000000000000000000000000AD
:2033200000000000000000000000000000000000000000000000000000000000000000008D
:2033400000000000000000000000000000000000000000000000000000000000000000006D
:2033600000000000000000000000000000000000000000000000000000000000000000004D
:2033800000000000000000000000000000000000000000000000000000000000000000002D
:2033A00000000000000000000000000000000000000000000000000000000000000000000D
:2033C0000000000000000000000000000000000000000000000000000000000000000000ED
:2033E0000000000000000000000000000000000000000000000000000000000000000000CD
:20340000002110B5044B054A934201D202C3FBE700F052F810BDC046080000206804002018
:203420001D4A1368083313601C4B1B68002B12D01B4B1A6808321A601A4A19681268914237
:2034400009D372B68020184900010A6802430A6062B600221A60154B5A68002A12D01A68E1
:2034600008321A601A6908321A611A69632A09D972B680200C49C0020A6802430A6062B656
:2034800000221A610A4B1B68002B03D0094A1368083313607047C046080000203C000020FC
:2034A00038000020300000200C000020180000201000002034000020264B274A30B51A603B
:2034C0000023264A264C9360A5445360254C1360254A90201460C02252010192022201A94B
:2034E000C005029304930392204D00F075F92368AB4210D080222100D20006A800F014FAE2
:2035000080221B4BD20006A920000793069500F04FF800F0A7F8C02280201649920108315A
:20352000000500F045F880220021D20006A800F039FA802206A9D200200000F039F800F09F
:2035400091F8BFF34F8F0C4A0C4BDA60BFF34F8FFEE7C04614000020006CDC02180000203A
:20356000E4FBFFFF0030000800000020C75E07B001340008303A00080400FA0500ED00E0BB
:20358000094B70B51A6805000E001C0082420AD000F068F8002E05D080222900D200034828
:2035A00000F0C2F9256070BD4000002044000020F7B50C00151E4ED0870ABF02B8421FD0A6
:2035C0008026C31B012138000193FFF7D9FF019BF600F61AB6B2B54200D2AEB2019B1E4876
:2035E0001B041B0CC0183200211E03D000F09CF9A41901E000F0D6F98023DB00AD1BFF182A
:203600002E00164BA81B38189E4212D90021FFF7B7FF80221048D200211E05D000F084F923
:203620008023DB00E41801E000F0BCF90C4BF618E7E7A80A80022D1A3818002D0BD0012162
:20364000FFF79EFF04482A00211E02D000F06CF901E000F0A7F9F7BD44000020FF03000070
:2036600000FCFFFFF8B5164F3E68002E27D000F04BF8300000F09EF80120404200F070F88F
:203680000222104C104D23699343236180220E4BD2009B189D420ED22988300000F050F80F
:2036A0000120404200F05CF8012223690235934323610236EAE700F039F800233B60F8BD46
:2036C000400000200020024044000020014B18687047C04608000020094BDA68D20604D5CC
:2036E00002200849CA690243CA61DA68520704D501200449CA690243CA611422DA60704708
:203700000020024048040020054B01201A69120604D50020034A5A60034A5A607047C0460B
:203720000020024023016745AB89EFCD8021034A002013690B4313617047C04600200240FC
:20374000002210B50124044BDA61044A136923431361018010BDC04648040020002002400D
:2037600070B50400FFF7B2FF012506001049CA680F4B2A420BD0631CF9D0002C01D10320B8
:2037800015E0FFF7A3FF801B8442EFD2F7E72022D968114200D0DA60D8681023184003D11D
:2037A000034BDB685B0702D5FFF796FF012070BD0020024000220221054BDA61054B1A6961
:2037C0000A431A6158611A693E310A431A6170474804002000200240F0B50B6887B0039344
:2037E00000230291039ADA4000D190E001229A40039C1440019400D187E0029A10215268D7
:2038000016008E43022E0ED107251D40AD000139A940DC08A4000419276A8F430299096944
:20382000A9400F43276203245F00BC400321E4431140B9400568013E25400D430560012EB8
:2038400010D802998568CE682540BE40354301269E40012185604568B54316090E409E40EB
:2038600035434560C56802992C408D688021BD4049052C43C4600A4247D00121254C032763
:20388000A5691F400D43A5610F25A469BF000C400594059C20499C08A4006418BD40902104
:2038A000A668C905AE430025884208D01B490135884204D01A490435884200D1033DBD40C8
:2038C000019935430E00A560164CCD4327683E43D10301D43E002E4026606768019E3E4377
:2038E000910301D43E002E406660A768019E3E43D10201D43E002E40A660E668019F3743FC
:20390000920201D42E403700E76001336AE707B0F0BDC04600100240000001400004004884
:20392000000800480004014070B50F2A32D90C0004430B00A40731D115000400103D2D09E2
:2039400001352D0149191E6826605E6866609E68A660DE681033E66010349942F3D10F2319
:2039600045191340032B1BD91C1F0023A4080134A400CE58EE5004339C42FAD103232D19E1
:2039800009191A4005D00023CC5CEC5401339A42FAD170BD0500002AF5D1FAE70500F2E78F
:2039A0001A00F8E770B583073FD0541E002A3BD0CEB20300032503E0621E002C34D0140057
:2039C00001335A1E16702B42F6D1032C24D9FF250D402A0215432A0415430F2C11D926008F
:2039E000103E3609013636011A009B19156055609560D56010329342F8D10F221440032C16
:203A00000AD9261FB6080136B6001A009B1920C29342FCD103221440002C05D0C9B21C1957
:203A2000197001339C42FBD170BD14000300CCE7080000000000300000180020C1000008EF
:203A4000F7EDC87007DA73A0ABB50C23C39B809C563C2647D63EC9855C86DA2F2233E78E37
:203A6000534DB22AED0000084124B0DA69E5D40CED000008ED0000084DE818D3F7EDC87092
:203A800007DA73A0ABB50C23C39B809C563C2647D63EC985ED0000082233E78E534DB22A8D
:203AA000EA6D80424124B0DA69E5D40C529E474D8BA44E594DE818D3DBE7E1673E25265B68
:203AC0001AC5ADB1E60EF66EDFAFE0261790D2A81B60849D89BE140E69267041E09BDDA659
:203AE0006750D39546FCDC5AE5EE3026E454CAB8265BA7D5ED00000810B572B60020064BFC
:203B0000064A1860064B1968914201D15B68984700F092F910BDC04600000020C75E07B07A
:203B200000300008064B10B51A68002A06D0054B5B68DB055B0D9B58984710BDFEE7C046D0
:203B40000000002000ED00E065383031623062363431316165626631356666313734636299
:203B6000393930353539626237393033333439613636633133356532396537623438373857
:203B80006364306264386534656561363661356361393339323737663063633839663338C3
:203BA000663931663635363163373834363166336331393130393138393235316439643124
:203BC0006232323233626534363964376335363363666561313765336161376333383665C3
:203BE00038346566323234643233663666366464373732366630346463386261663232639E
:203C0000326462623266663939386236336537383636366331373264663331303137326606
:203C200038306430303863333134393330616662623764636533353930666134643338629E
:203C4000326464633266663536643739356364653533623264373434313666653964313733
:203C60006432363338366436383265303533646361323637323030396236626638646638AA
:203C80003030343534623962313866666563376165366462623762363136663836366464CA
:203CA0003465653662383436653366633237343330346263363635383634343737316531C6
:203CC000626162663032303166663333383664623961643830613732303266366630373104
:203CE00039643432643034303136326462646532643466363531303834366138613262363F
:203D000065613062613338653432623164643633343563356536336132366433636466652F
:203D20003633313637663531353731613230626137666362333666633163363266346137CB
:203D40006332633134643864643464366538306133393665386165656261653364313438E0
:203D6000336530346262656333323130343232613365333266636537626331636437393835
:203D8000633330363633633361396563653231633064373262653031326565363563653215
:203DA0006139353261666135613661353138633531346236653533646230663961316362C1
:203DC00036383534323061643164316633336163633762616666616432393864633036666B
:203DE000666534336666346239653333376136623861666365636161303434373533616116
:203E0000646130376266383130653739363765633364363831316662396566613065653449
:203E2000653836336535636431633036353136663435663531646131002370B509480A4908
:203E40000A4C1A188A4203D2E55804331560F8E70021074B074A934201D202C3FBE700F06E
:203E60003FFB70BD0800002008000020802F000808000020EC090020001800200104000852
:203E8000D5ACE78FF152EBB2DFF815FB2CCBB98A1CDD365A4CC160C761903E15B4D31E394B
:203EA0005A8F73BCC4928AB276DB10CD74157435983A9614350700082E11C112EB241C5C9F
:203EC000A9CD8D891187D45177686F0FD12CBC3D57D1A3672C041B0DA9FB0048058312B680
:203EE000B9CC659290D788422AFC2A88E49F0F00D63267FBE6021301BDBAE91D22ACC83CF6
:203F0000AF3617DA85155A36F6F24FF407BA0C99F82F0B8F43A6C0B6BFECEF5BD8F45E8C45
:203F2000315B804E6E68D532CB5AD4D5D65F8585E8B5D81C2507000813B501248C408A40F5
:203F40004B1C01930368A3431A43026013BD7FB5A72390200193A63B0293002301A9C0053C
:203F60000393049301F060F807B000BDF0B51F4C020089B00E0020000021FFF7DDFF0222C7
:203F800009250292236893432360013DEDB20623002D18D02027049323683200BB43236044
:203FA0007F239A430192019A0721531E9A410F48FFF7C2FF0623039323687600BB431F43B2
:203FC0002760F6B2E1E720220793236893431E3A23600692236893431343013A236005922E
:203FE00023689343236009B0F0BDC0461400004810B501000020FFF7B9FF10BD10B50100EE
:204000000120FFF7B3FF10BD10B504008120FFF7EFFFFF206421604302F0E8F8C0B2FFF73B
:20402000E7FF10BDF8B500240C4B1B68A34213D050277F42380000252043C0B2FFF7D8FF23
:20404000074EE301F618705D0135FFF7D7FF802DF9D10134042CEDD1F8BDC04608020020CB
:204060000800002070B586B0FFF771FF01221D4C059223680326934392182360049223685C
:2040800004259343134323600623039323681E3293432360029623680A20AB43236000F0A7
:2040A000E1FE019623680A20AB432B43236000F0D9FE00240C4BE05C0134FFF799FF1F2C6A
:2040C000F8D1802200219200084800F013F80122074B1A60FFF7A6FFAF20FFF789FF06B0EA
:2040E00070BDC046140000483C290008080000200802002003008218934202D01970013371
:20410000FAE77047002310B59A4203D0CC5CC4540133F9E710BD425C41184B788878120281
:204120001A43CB780002120418431043704700207047000010B5002809D0FA21054B8900D1
:20414000186802F053F8C00000F0D2FE01E0024B186010BD1404002010E000E010B5024898
:2041600001F0F6F910BDC046D4020020054A136808331360044B5A68002A02D01A68083255
:204180001A607047040000201C04002030B520230024012599B00BA80B931295149401F03E
:2041A0005DFB0323290001A8029301950394049401F0A0FB054B05A8059307940A9401F00A
:2041C000D7FB034A034B1A6019B030BD01000200006CDC0214040020802210B5D200002163
:2041E000024800F0E1FA00F039FB10BD00300008F0B589B001F0B0FC784BFF271B0E03935E
:20420000764B3F021B0CDBB20493744B1B0ADBB2059300231800019300930100009801F05C
:2042200089FD0028F9D06E4C2378E02B00D08FE06078C0B2042800D995E001F0CDFF2703BD
:204240008B941C00052267492000FFF75BFF601D03226549FFF756FF6B461B7B0C20237239
:204260006B461B7C63726B461B7DA3725B4BE37290231B0289E005212000FFF74CFF5B4B62
:2042800098426AD0FF275A4B3F027DE0FF2325791B02EDB29F4264D06079ABB20538042871
:2042A00061D84F4E01F098FF030B285F2D00052B5BD106213000FFF72EFF01901EE0043B3A
:2042C000FC2B52D8B479F37924021C43019BE418424BA34257D8033D464B2A199A4252D81C
:2042E0003E4B454A1968914203D01A68434B9A425BD1FFF771FF58E000F0B0FA90231B025F
:2043000042E0052B31D13E4C344B211FC91A32003C4800F089FD80223300520021003A4827
:2043200000F0A8FB002823D02C4C0422200007A900F03AFA00F092FA606800281AD022685D
:204340002D4B9A4218D022682C4B9A421BD113E0DC230BE090231B0212E090232B4F1B026F
:2043600012E02B4B10E0DA2300E0CE23DB010BE0284B0AE0284B08E09023FF271B023F0261
:204380008022009200E0244B0020154A190A1154DCB2411C54549022023080B21202934201
:2043A00000D13AE7FF273F0237E70C4B1E1DB4420DD20B4B361B08333200190007A80293AE
:2043C000FFF7A0FE320000210298FFF793FE04492A000831200000F0E7F98FE70030000887
:2043E00034040020392B0008352B000801000001846A000000800008C75E07B0BEBA0DF0C8
:20440000B87E000804300008602B000811EE00008569000082690000846900000E4B0F4A18
:20442000196810B5914215D172B60D4A82F309885B68984772B60B4A0B4B1A6000F0AEF972
:20444000FFF7CAFEBFF34F8F084A094BDA60BFF34F8FFEE710BDC04600300008BEBA0DF039
:204460000018002040040008000000200400FA0500ED00E070B5102805D0830705D4124CD5
:20448000C30703D41EE0114C00E0114C21004F221048FFF737FE21004F224F310E48FFF770
:2044A00031FE002380200F251E000C4C800019190A78AA43D02A00D10E7001338342F6D136
:2044C000FFF7B0FD70BDC046972A0008F92900085B290008A000002020010020080000205E
:2044E000F0B5934A0026934B934D1A608023934CAE6001276E602E60E2695B051A43E2617D
:20450000E2698FB0134080220193019BA36992023B43A361A36990203B400293029B636995
:2045200009A9134363616369C00513400393039B80231B02099303230A970C930B9600F044
:2045400073FD8021902032000902C00500F0AFFD80226369120313436361636909A913408E
:204560000493049BC02376489B0009930A9700F05BFD80213A004900714800F098FD802141
:20458000320089006E4800F092FDFFF7FFFD6D4B90200993032309A9C0050A9300F044FDCA
:2045A00080226369D20213436361636909A913400593059B644B6548099300F035FD8022DA
:2045C0006369120313436361636909A913400693069B5F4B5A48099300F026FD3200032184
:2045E0001F2000F04BFC012032003900404200F045FC3800FFF79EFD62B600F0CFF830003E
:20460000FFF730FD1420FFF7FFFC1020FFF732FF8022636992021343636163699020134010
:204620000793079B802309A91B02C00509930A960B9700F0F9FC80226369D20213436361E8
:20464000636980241340089309A94048089B099400F0EAFC102321003C482E60AB6000F04B
:2046600020FD80214442444190200902C00500F018FD43425841B84020436860802133488F
:2046800000F00FFD80214442444190200902C00500F007FD434258414000204368606B68A2
:2046A000002B20D06C68012C0CD12A68294B9A4208D9AB68234205D12000FFF7DBFEAB68EE
:2046C0001C43AC606C68022CD8D12A68214B9A42D4D9AB682342D1D12000FFF7CBFEAB6831
:2046E0001C43AC60CAE76B60AB689B0702D42868FFF794FEFA20400000F0B4FB0220FFF71F
:20470000B9FE0122144B154C1A7015490022200001F018FB1349200001F032FB12492000BC
:2047200001F01AFD200001F031FBFFF761FDC04640040008000000201C04002000100240DC
:2047400000080048FF030000FFFF000000040048FFFC0000B70B0000180400201002002092
:20476000042F0008242F0008742F0008094B70B51A6805000E001C0082420AD000F06EF8DA
:20478000002E05D080222900D2000348FFF7BAFC256070BD64050020680500200022014B4C
:2047A0001A60704764050020F7B50C00151E4ED0870ABF02B8421FD08026C31B012138001D
:2047C0000193FFF7D3FF019BF600F61AB6B2B54200D2AEB2019B1E481B041B0CC0183200F8
:2047E000211E03D0FFF78EFCA41901E0FFF782FC8023DB00AD1BFF182E00164BA81B381816
:204800009E4212D90021FFF7B1FF80221048D200211E05D0FFF776FC8023DB00E41801E063
:20482000FFF768FC0C4BF618E7E7A80A80022D1A3818002D0BD00121FFF798FF04482A00F3
:20484000211E02D0FFF75EFC01E0FFF753FCF7BD68050020FF03000000FCFFFFF8B5174F81
:204860003E68002E29D072B600F076FB300000F0C9FB0120404200F09BFB0222104C114DF7
:2048800023699343236180220E4BD2009B189D420ED22988300000F07BFB0120404200F019
:2048A00087FB012223690235934323610236EAE700F064FB62B600233B60F8BD64050020CA
:2048C0000020024068050020F0B500240025002387B000940195026893421BDA009E019F05
:2048E0000C68029400240394029C039DA4197D419E00B44684446646B6680133049600261C
:204900000596049E059FA41BBD4110C1EC1700950194E1E707B0F0BDF0B59DB00D9300231A
:204920000D00040019001A920268934203DA980029500133F9E70023069323680C930C9AD4
:20494000069B934200DB90E0069B1A9A9B00D3582F0018930D9B189A1B6802930023029872
:20496000190001F0DBFC2B68049300230593049A059B12184B4102920393029A6368A068E4
:2049800053431A0019930023190001F0C7FC029B0E93059B0F930E9A0F9B12184B410892A9
:2049A000099301230793079A0C9B93423EDD079B9E00039B0093002301937B681093002394
:2049C000119310981199009A019B12184B41029203930D9B189A9B59A6191B9300231B983A
:2049E000190001F09BFC029A039B12184B4102920393019BB068199A190001F08FFC099B5C
:204A00001293019B1393129A139B80185941029B1493019B1593149A159B12184B410892ED
:204A20000993089B08C7079B0133BBE7039B0A9300230B93099B169300231793169817997C
:204A40000A9A0B9B801859410C9B002B00DC0123074A9B189B005851002903D0290020007B
:204A6000FFF732FF069B013366E71DB0F0BDC046FFFFFF3FF0B5454C1E000368A544040085
:204A8000402B01D000207DE080235B009A42F9D10933FF33C0583E4B9842F3D100236D4636
:204AA000C85C585501339342F9D100253FAB1978AF000806597840AA09040143D878013563
:204AC00001439878043B00020143B950402DEED123000933FF3380A92000FFF71DFF0827AD
:204AE000C0AD80AB1A0029002000FFF715FF013F2B002A0080A92000FFF70EFF002FEFD1E1
:204B000040AB80AA29002000FFF706FF2368002B07D0013B9A00A958A2189268914204D37A
:204B2000F5D929002000FFF7CFFE6B4622680133013A0BD491006958581E0C0E0470080CA8
:204B40001870080A587099700433F1E78022E02152000B00E03BF05C6B46CB5C434068466B
:204B60000B5401319142F4D16A4600F05DF90023084A6946C85C995C884283D10133202B3C
:204B8000F7D10120044B9D44F0BDC046FCFBFFFF010001003E2B0008040400000A4B002262
:204BA00083640A4BC3640A4B03650A4B43650A4B83650A4BC3650A4B03660A4B436600233F
:204BC000026043607047C04667E6096A85AE67BB72F36E3C3AF54FA57F520E518C68059B08
:204BE000ABD9831F19CDE05B3F23F0B5066847680468D51723401400A4197D4104604560F7
:204C0000D1B08A1801910E920E9A01998A4200D1C2E001995A1C0978C3181972402A00D08D
:204C2000B5E00300002108331A7814065A7812042243DC7822439C7804332402224310AC3C
:204C40000A5104314029EFD111AA41AD116807240E001227E6410C00FC41C90874404C4086
:204C6000111F166A0968536B891961181E001124E6411C000137FC419B0A74405C400C1915
:204C8000D46304329542E1D1836C0493C36C04990593036D059D0693436D069C0793836DAD
:204CA0000893C36D089A0993036E0A93436E0B93079B0D930B9B0C930A9B0393099B029393
:204CC000002300930D230F000226DF410B00F3415F400B001436F3415F4023006B400B4078
:204CE0009C46230066462B407340FB180F9317000B230626DF411300F34116005F40192367
:204D0000DE41264B7740009EF3589C4610ABF358039E6344FF18029B964313407340FF1889
:204D20000C9B0F9EFF180D9B0D94FB18F719009E04360096039E0C9680267600B446009E37
:204D4000664507D0029C029203941A002C000D003900B7E7049EF719059E87647118C164F0
:204D600006994D19079905650C1908994465CB188365099B9A18C265029A0A9B9446039AB5
:204D800063449446002203660B9B63444366019B01330193130037E751B0F0BD702D000829
:204DA0000300F0B5083385B0416800930368CE005A0F1643DB0001221949040001933F2746
:204DC000FFF712FF25683D40382D05D0012215492000FFF709FFF5E702AB2A00019831006C
:204DE000DF1D01F08FFA083D3870012239002000FFF7FAFE2B000833EED12100009B48318C
:204E0000283404C9100E1870100C5870100A9870DA700433A342F4D1009805B0F0BDC04692
:204E20006E2D00086C2D000870B50E0005009AB068461400FFF7B2FE320029006846FFF745
:204E4000D3FE6846FFF7ACFF202201002000FFF759F920001AB070BD014B18687047C046E7
:204E60000400002013B50190FFF7F6FF0400FFF7F3FF019B001B9842F9D313BD70B5890102
:204E8000002814DA0F23C0B20340083B114A9B0803249B009B18FF222040A04014000A40A0
:204EA00084408240DD69A5432A43DA6111E08208094B03259200D218FF232840A8401D0094
:204EC000C02485400B408340A4001659AE433343135170BD00ED00E000E100E01F231840E8
:204EE0001E3B8340014A13607047C04600E100E00A4A012390420ED8094A01385060C0200E
:204F0000084900060B6A1B021B0A03430B62002307219360116018007047C046FFFFFF004F
:204F200010E000E000ED00E0094BDA68D20604D502200849CA690243CA61DA68520704D503
:204F400001200449CA690243CA611422DA6070470020024068090020054B01201A6912061A
:204F600004D50020034A5A60034A5A607047C0460020024023016745AB89EFCD8021034A5D
:204F8000002013690B4313617047C04600200240002210B50124044BDA61044A13692343CE
:204FA0001361018010BDC046680900200020024070B50400FFF750FF012506001049CA6811
:204FC0000F4B2A420BD0631CF9D0002C01D1032015E0FFF741FF801B8442EFD2F7E720225A
:204FE000D968114200D0DA60D8681023184003D1034BDB685B0702D5FFF796FF012070BDD1
:205000000020024000220221054BDA61054B1A690A431A6158611A693E310A431A61704799
:205020006809002000200240F7B50B6800930023009ADA4034D001229A40009C14422DD004
:205040004C68022C0DD107270F261F40BF00BE40DA0892008218156AB5430E69BE4035439F
:20506000156203225F00BA40D243056826001540019503252E40BE40019D013C354305605C
:20508000012C05D8CD688468BD4014402C438460C46822408C68BC402243C2600133C7E75A
:2050A000F7BD00690840411E8841C0B27047002A01D0816100E0816270470000F8B5040032
:2050C0000120002C3ED02500FF35AB7ADBB2002B03D16B72200000F059FC270003232600B6
:2050E0002837AB727022002138009836FFF702F8702200213000FEF7FDFF00233800190043
:2051000001276268934205D003704770C17001331C30F7E700231900934204D03370F17051
:2051200001331C36F8E700200121236805349A1C9E1D5033D187D087F0871880024BD387AB
:20514000E077A972F8BDC0460084FFFF8022036812025833198800200A431A807047020093
:2051600010B5FF32547A0223012C0CD0013B5372002904D1036880314C33198001E00530F4
:20518000C17700235372180010BD0000F0B57F251C240D4049B26C43002906DA2100041943
:2051A000283141182934012605E021000026983104194118993426700400CB700D70CA6005
:2051C000FF34657A0223012D00D185E0013B63720C780368CD78A400404E1C19002D04D186
:2051E000258835408026B60003E025883540C026F600354325800C78394EA700DF193D88C4
:205200003540AC466646374D2C433443A4B23C801F004C78AC46260050370C788D88002EB6
:205220001DD03A88E4001C19A4188022D200A4180122954325800A7892009A18148864064E
:2052400005D51488264E2640274C264316800A7892009B181988254A0A40202134E03E8850
:20526000E400A419224E1C19A4190126B54325800D783C88ED002D191E4C1C192D193E2A9E
:2052800008D95409D20601D1013CA4B21A4AA402144304E05408324200D00134A4022C8027
:2052A0000A7892009A181488640405D514880C4D2C40124D2C4314800A7892009B1819881F
:2052C0000F4A0A40C02189014A40614611438AB21A800023FF3043721800F0BD8F89FFFF83
:2052E0000F0F00008080FFFFC0800000BF8FFFFF04040000060400000080FFFF80C0000036
:205300008FBFFFFFF0B505007F201C2401404C432C192000A83002602200AC3213600023B3
:205320002E0083600F38037001380170FF36777A0220012F44D001387072A4341068246875
:20534000A04203D9001B1060200000E013601C234B43EB181A00A23212782C68002A1DD19D
:2053600022009833503217881A78164BD200D219E318D2183E2809D943099BB2C00601D111
:20538000013B9BB210489B02034306E043089BB2C00701D501339BB29B0213801C204143BD
:2053A0006D1898352B7800209B00E4182288074B1340C02292015340054A134323807072C0
:2053C000F0BDC046060400000080FFFF8FBFFFFF8080000030B50400FF34637A0200022029
:2053E000012B37D0012348B263721B33002804DA7F250D406B43283301E04B4398330125D9
:20540000D3189D707E352940C50F5D7019701268114D002908D11188104B0B4010494B4051
:205420002B439BB2138013E0890051180A88002805DA0C4B1340102253402B4306E00A4B88
:205440001A4080235B015A402B0013439BB20B800020607230BDC0468080FFFFBFBFFFFFA1
:2054600010100000BF8FFFFF8FBFFFFF70B58024E40000190C0001335B108218002B08D066
:20548000657826782D02601A354385520234013BF4E770BDF8B505007F201C2401404C43BE
:2054A0002C192000A263E363002201232E002930226401384370FF360170777A02209F4263
:2054C0002CD07372E36B676BBB4202D9DB1BE36301E01F00E2631C246143BFB26C18A16B8D
:2054E000A28D28683B00FFF7C1FF2D6828342B00227850331888D200094BAA181218D21827
:2055000017802378074A9B00EB18198800200A4030214A4004490A431A807072F8BDC046B3
:2055200002040000BF8FFFFF8080000010B58024E40000190C0001335B108218002B05D06E
:20554000601A805A013B20800234F7E710BD0000F0B5036885B00633DB8F04001BB2002B56
:2055600011DB23680633DA8F520500D453E1D98FAA4A20000A40DA8700F066FA00212000FB
:20558000FFF7EDFD47E102AB9F1D00233B80206803AA831DDB8F9BB213801BB2002BE0DAEB
:2055A0000F2315881D4000D09BE011880133194027D102889A4B1340220003800300283292
:2055C000127850331B88D2008018C018954BA26BC018038820009B059B0D2364D318A363A9
:2055E00000F028FA631DDA7F002AD0D0E06B0028CDD18022D97F114322684C321180D877AF
:20560000C5E703889BB23B803B881B051DD5030022005033983219881378DB00C3185B18AF
:2056200081495B1821001B880D319B059B0D9361FF319288FFF77AFF22687C4B118820002C
:205640000B40138000F0BEF9A1E73B881BB2002B9DDA0288754B25001340038003009835F6
:2056600050331A882B78DB00C3189B186E4A9B181B889B059B0DAB6109D02969002906D02D
:20568000AA88FFF753FF2B69AA699B182B610021200000F0A1F92168E8680B0050331A88D6
:2056A000614B8A18D2183E2809D943099BB2C00601D1013B9BB25E489B02034306E04308F6
:2056C0009BB2C00701D501339BB29B0213800A88584B1340C02292015340574A13430B801D
:2056E00055E7AB000193C3181A8892B23A803A8812B2002A4BDA19884C4A0A401A800300C1
:20570000503319881C236B43E3181A0098321278D20082185218444952181688B605B60D26
:2057200009D01A00A8321168002904D09C331A883300FFF7FBFE1C2213006B43E318180081
:20574000B0300168A833891901601968002901D0891919606A43A2181300AC331B68002B85
:2057600004D01100A43109688E4208D21C236B43E31898331978200000F02EF907E01000E2
:205780009832A830117802682000FFF7BBFD80223B88134200D1FAE62068AB00C31819888C
:2057A0001F4A0A401C211A8003006943503361181A880B0028331B78DB00C3189B18194A4D
:2057C0009B181B889B059B0D0B6403D08A8D896BFFF74CFE2068030050331A881C235D430F
:2057E0006519290028310B78DB00C3189B180D4A20009B181A88AB6B9205920D2A649A1865
:20580000EB6BAA630978002B02D100F013F9BEE6FFF740FEBBE605B0F0BDC046FFFBFFFFD1
:205820000F8FFFFF02040000060400008F0F00000080FFFF8FBFFFFF8080000010B51C2251
:205840000C0604D57F2421404A43283201E04A4398328118002088728B8010BD036870B51F
:205860009B0601D400203FE00C23204C62681A409A4209D062681340082B0ED1C022636823
:2058800052021340934208D1636BDB03EAD5C0690138431E9841C0B226E0C369002B11D0FC
:2058A0008025636B6D022B436363FFF7D5FA0600636B2B42D6D1FFF7CFFA801B6428F7D96F
:2058C000032011E0626B0A4B802513406363FFF7C3FA06006D02636B2B42C3D0FFF7BCFA32
:2058E000801B6428F7D9EBE770BDC04600100240FFFFFEFF012310B51A4C22681A408A4260
:205900000AD303685B0726D51749184B4A681340C26813434B601EE022689A430A432260BB
:2059200022681A4091421AD102681A42E9D041680D4A032902D1546BE40310D503245368DA
:20594000A3430B435360A142DBD10C2153680B400C2BFBD1D5E70320FEF7E9FB00231800A8
:2059600010BDC0460020024000100240FFF8FFFF03689B0306D5802203490B6B93434269E2
:2059800013430B63002070470010024007B50B4B02689A4211D18023094A1B04D1691F2052
:2059A0001943D161D2691340002201931100019BFFF764FA1F20FFF791FA07BD005C0040F4
:2059C00000100240010010B50D31FC30FF31006C00F0EEF910BD0000F8B51C234B43C318B0
:2059E0009C331A8850239C4604000068CF00844463460D001B880D49DB194618995B402386
:205A00008905890D994205D863461B88FF18BB5B9B059B0D064EFC343100FFF787FD320088
:205A20002900206C00F0E4F9F8BDC046060400008C0900201C234B4310B5C318FC309A6BCC
:205A4000006C00F0FDF910BD10B5FC30006C00F03CFA10BDA02270B5114C0500520000211B
:205A60002000FEF747FB2300FC331D640D4BC035236004232C6063602000023BA3602361D2
:205A8000FFF71CFB0022286811004023FFF7D6FE8023286800221900FFF7D0FE002070BD8A
:205AA000D4020020005C004010B5C0300068FFF74DFB002010BDF8B51E007F23C0300D00A2
:205AC000170004000B40CA095B009B1801339B0189B200220068FFF7B1FE3B0032002900AF
:205AE0002068FFF753FB0020F8BD10B5C0300068FFF770FC002010BD10B5C0300068FFF786
:205B00002EFB002010BD000070B57F243026074D0C402D68A4002C1925883540302DFBD0E9
:205B2000C0300068FFF7B6FC002070BDD402002010B502000B0002488221FFF7E5FF10BDBC
:205B40001002002010B5C030130000680022FFF7D9FB002010BD00000022014B1A6070476B
:205B60008809002070B527498B78052B3DD1264DCB7808792C681B020343A3423ED12B68E9
:205B8000002B19D148798B79000218431F4B186097201C684000844230D8073A94B21A689A
:205BA0001B4B1C481A601C4A10601A68944201D91C68A4B207310AE0154B053A94B21A6836
:205BC000944201D91C68A4B2134B053118682200FEF798FA104A13681B1913600C4B1A6829
:205BE000141B1C602B6801332B60094B01201B68002B05D1044A0018136001E0002028604D
:205C000070BDC0468C09002088090020D4090020D009002034040020CC090020F7B50C1ED2
:205C2000019000920FD16B461B785BB2002B4FDAC820FFF717F9BFF34F8F294A294BDA601D
:205C4000BFF34F8F43E00023274A28491360284A1160284A1380284E3E22B01C0021FEF779
:205C600049FA0523B370204B30001A68120AF2701A681B683271002B0AD13925AC4200D829
:205C8000E5B21B4F230A7371B47107303E6806E03B25AC4200D8E5B2154F05303E682A00E4
:205CA0003100FEF72FFA104B641B1A6876190132A4B23E601A60002C02D11C600D4B1C809A
:205CC00040210D48019B9847002CC4D1ABE7FEE7009B00209B0602D4064B188880B2FEBD4B
:205CE0000400FA0500ED00E08809002034040020CC0900200C0200208C09002010B5011E0F
:205D00000DD0084B0848E8331A6892B2FFF72AFF022804D1054B064A1B689BB213800020E1
:205D200010BDC046D4020020F9200008D40900200C02002010B502000148FFF76FFF10BD0D
:205D4000F920000870B504000D00160000210422FEF7D0F92300B4331A68002A01D0002228
:205D60001A60002D02D02300B0331D60230001229C331A7020002670FFF76CFE002070BD25
:205D8000002901D0B43001600020704710B5FFF78BFE002010BD0300B4331B6810B5002B5F
:205DA00001D1022003E01B6898470028F9D110BD70B505000400A835280000F0B4F82300F9
:205DC000012294331A602200AE3212885A601F232A78134006D0012B08D12900200000F0BE
:205DE0008AF803E02900200000F0BBF8002070BD10B503001400002914D194331B68032BA3
:205E00001CD1C36D026E934209D99B1AC3659A4200D91A0092B2210000F0C0F90EE000F0A6
:205E2000C3F90BE0B4331B689B69002B06D002009C321278032A01D122009847002010BD05
:205E4000F8B504001500030000292FD194331B68022B38D1C369066AB3420AD99E1B0A0099
:205E6000C661FFF76FFEA28B2900200000F08EF929E087693100380000F03EFA0D1E11D114
:205E8000BE420FD82600983633689F420AD20A002000FFF757FE2A002900200000F076F988
:205EA000356010E0200000F08BF90CE0B4331B68002B08D05B69002B05D002009C32127852
:205EC000032A00D198470020F8BD70B50022012604004025067411004023FFF7ECFD2566E1
:205EE0002B00002280212000FFF7E5FD25629C342670002070BD030070B59C331B780400F4
:205F00000D00032B0DD10B79012B0AD80300B4331B689B689847EB88002B02D1200000F006
:205F200043F9002070BD0B7803704B784370CB788A781B02D31843804B790A791B02D3180D
:205F40008380CB798A791B02D318C380704710B504008021FFF7C9FD00212000FFF7C5FDD6
:205F600010BDF7B54B7804000E00062B04D0092B5BD0052B6DD140E06B469D1D00232B80A8
:205F800003004888B0331B68020A022A0AD003D8012A5ED11B6809E0032A0BD00F2A58D1AB
:205FA000DB6903E02300B4331B68DB6A2800984707000EE0C0B203280BD800F00DF9020470
:205FC00006085B68F2E79B68F0E7DB68EEE71B69ECE72A88002A40D0F388002B3DD0111C02
:205FE0009A4200D9191C2000298000F0E9F82A883900200000F0BCF82FE08B88002B2CD124
:20600000CB88002B29D14D887F331D4003009E331D702900FFF770FD200000F0C5F8002D3D
:206020001BD002239C34237017E002009C321378023B012B11D88978002906D00323416082
:206040001370FFF7A8FE022803D0200000F0ACF803E031002000FFF77AFF0020FEBD0000F2
:206060001223038000487047EF2E00080423038000487047C92E00082423038000487047D3
:20608000702E00080E23038000487047652F00080A23038000487047942E000829230380C3
:2060A00000487047A02E000800207047030010B50400BC331B6810009B689847402202217F
:2060C0002000FFF73FFD002010BD0000602310B50A7813401CD14A78062A19D14C88240A99
:2060E000222C07D1CB881A1C222B00D9221C92B208490BE0212C07D1CB881A1C092B00D952
:20610000092292B2044901E019001A0000F030F8002010BDCD2E00085C2F000810B504004B
:20612000402303228221FFF7C6FC0221402303222000FFF7C0FC2300064AB8331A600433F0
:206140001B681B689847402202212000FFF7FAFC002010BDD80900200223002902D0002398
:20616000BC3001601800704700207047002070471300020010B50224943214600A0083612D
:20618000C3610021FFF7C0FC002010BD10B513000A000021FFF7B8FC002010BD10B500219B
:2061A000FFF7D0FC002010BD03000422943310B51A6000231A001900FFF7A6FC002010BD26
:2061C00003000522943310B51A6000221100FFF7B9FC002010BD000002B4714649084900BD
:2061E000095C49008E4402BC7047C046002243088B4274D303098B425FD3030A8B4244D327
:20620000030B8B4228D3030C8B420DD3FF22090212BA030C8B4202D31212090265D0030BD1
:206220008B4219D300E0090AC30B8B4201D3CB03C01A5241830B8B4201D38B03C01A5241DE
:20624000430B8B4201D34B03C01A5241030B8B4201D30B03C01A5241C30A8B4201D3CB022F
:20626000C01A5241830A8B4201D38B02C01A5241430A8B4201D34B02C01A5241030A8B4207
:2062800001D30B02C01A5241CDD2C3098B4201D3CB01C01A524183098B4201D38B01C01AD8
:2062A000524143098B4201D34B01C01A524103098B4201D30B01C01A5241C3088B4201D313
:2062C000CB00C01A524183088B4201D38B00C01A524143088B4201D34B00C01A5241411A63
:2062E00000D20146524110467047FFE701B5002000F006F802BDC0460029F7D076E7704772
:206300007047C046D0400B1CD1409C46203AD340184352426346934018437047F0B54F4672
:206320004646C0B41604360C9946330005042C0C070C150C63437E436F4365431C0CAD19CB
:2063400064199C46A64203D980235B02984647446346250CEF191D044B464A4343432D0CD1
:20636000240464199918C91920000CBC90469946F0BDC046AE001000B08180A1A6A81FC850
:20638000D300D91FDA00DB408D14A42E21007F22000340C0F0F8FCBC3E06063EBCFCF8F03D
:2063A000C0D8DAD9D5D6D0D8D9F8484848B80000C0202020C00000C0202020C00020F020EE
:2063C0002000F80000C0202020C00000A0A0A0E00000C0202020F80000C0A0A0E00000E02D
:2063E0002020030F1F3F3373727273333F1F0F03D7D2D5DDD4DFDBD3070404040700000374
:2064000004040403000003040404030000070404000700000304040403000007040407001D
:206420000003040404070000030404040000070000D7D7DFDBD1D4D6DAD8DBD9D4DBD5DB88
:20644000D4D4D3DEDDD0DED2DDDEDCD2D6DED9DACCCECFCF0000FFFFFFFFFFFFFFFFFEFC8C
:2064600000D4D3DEDDD0DED2DDDEDCD2D6DED9DAD6D8D3D2D2D6DFDFD4D8D6D8DED6DCD8EF
:20648000D5DCD2DBD7D4DED3D0DFD3DAD3D2DDD9DADFD2DCDCD2D1DAD7D0D6DBD2DBD033C3
:2064A00073F3F30000F3F3F3F30303F3F37333DED7DBD6D2DED5D8DED4D1DFD7D3D2D9D4D7
:2064C000D2D8DFDFD5D5DCD5D5DEDFD2D1D8D1D3D6D3D7DDC0F0F8FC9C0E069E1E3C7CF82B
:2064E000F0C0D5D2D4D8DDDBDDD0F8888888700000C0A0A0E00000C020202000C020202014
:20650000C00020C00000C02000C0A0A0E00000E0202020C00000C020DBDBDED0D7D9D7D37D
:20652000000000030F1F3F3F7F7E7F7330381F0F03D7DFD3DDD9DCDDD2070000010600004C
:206540000304040400000304040400030404040300000106060100000304040400000700E7
:206560000020211E0601DFD2D0D1D1DDD4302E39000100000103AB288D8AD7D95992BACC3A
:20658000F86720E1152E398D8036D66FF0FD90E87D8BE17C8759000040000000958D8A20E1
:2065A00043AAD8F44A87876519470AFEF6286AAA6E9A318BA4EACC5FF1973E34C84DECA0B3
:2065C000169FA56227DBF767A900D0E9AD906AED1F5FAE8321415835A99D85D7F84580723A
:2065E000022076036E3E3745434BBF05D914E32FB5CE3EEF1324AF7FA40B63EF2AB20A6E1D
:2066000010B7B00D24BE2D9DA05631DC551169F29841F2668804D1491964662117CF747FD2
:20662000160241BE1B59A56B5E92705074D50E707983EB57098DE09B60039D5D3C3F62D0EF
:206640004EAF8E0915EBB5696102F0717B928E68DD1E060F3E9FF1719333B0A24482253837
:206660000ECC14FC411A12694F74461E24C3C2DC4C8DFB1077D120742097038BEBD496EE66
:206680009469835977DEA5AF0DABC36F5AE88334F9F9FD4263E0D62F758FA98399723E960D
:2066A000763BA675AF0F1BD14D8C1BBBB8D9BC29B7C1F31BB557066FAE6716AEBBE7113874
:2066C0003DC3E1CF25B0751348BBA9840543E59730F0E257693D51DA7CC059A7BC8542E3ED
:2066E0004B73BB4017F17612C17E125159994673D91F37C10144F4E59A47B1AF112BB36561
:206700006DBEBBD5C63D2F3C6AC4C154AE890DA73DECCF1CEE46230D37D2D2A973F604D2E7
:2067200009ABCB1F3366860416FE1CC566CC0D1E405466DB47AF1FF8ED3ECDBB6551EFAA62
:206740002174AF6697E5EABF9D4486BF4C1C159E95B6759AD898EAD7946EB9EE1E4DCBB906
:20676000FB66EC968D46AE1EA57E0D2F9A2E9A79004ECF88FD07227361590C3D6C58240034
:2067800004DFC744CFFAC4EAEB8A79F482604183F92CADFD097F6F4BC7D4F450B5E3235110
:2067A0000100010000008000982F8A4291443771CFFBC0B5A5DBB5E95BC25639F111F159F2
:2067C000A4823F92D55E1CAB98AA07D8015B8312BE853124C37D0C55745DBE72FEB1DE806F
:2067E000A706DC9B74F19BC1C1699BE48647BEEFC69DC10FCCA10C246F2CE92DAA84744A24
:20680000DCA9B05CDA88F97652513E986DC631A8C82703B0C77F59BFF30BE0C64791A7D599
:206820005163CA0667292914850AB72738211B2EFC6D2C4D130D385354730A65BB0A6A7690
:206840002EC9C281852C7292A1E8BFA24B661AA8708B4BC2A3516CC719E892D1240699D6C0
:2068600085350EF470A06A1016C1A419086C371E4C774827B5BCB034B30C1C394AAAD84EC0
:206880004FCA9C5BF36F2E68EE828F746F63A5781478C8840802C78CFAFFBE90EB6C50A4C7
:2068A000F7A3F9BEF27871C624034E0061006E006F0020005300200042006F006F0074000C
:2068C0006C006F0061006400650072000A033000300030003100000009022900010102C07B
:2068E0003209040000020300000209211101000122220007058203400001070502034000AE
:20690000010403090406A0FF0901A1010903150026FF007508954081080904150026FF00A9
:20692000750895409108C01201000200000040972C01000002010203010000002926000833
:20694000352600084D2600084126000859260008412600084126000800000000E526000872
:206960005C79D54295260008DB5E0460064676D47126000875260008878E1F29633B9BC796
:20698000F7686CC965260008652600086526000856EC17EC0921110100012222000E034C87
:2069A0000065006400670065007200003527000831270008C522000836366132326336391A
:2069C0006537646638653935633433366235626363643637346438633032333437333763B6
:2069E0006434363338666536376266366162366337623866653331383836363239343161BF
:206A00003563373334613165643930663235653166383433613239373935666665303434DA
:206A2000326236653035383333356234323165636634663534333863FFFFFFFFFFFFFFFFFF
:206A4000766731C4C29293F11ABD3D5490FD5273B3F3C3FBA3CA33A517969242CFF8500190
:206A60002EF20F438150060C618B3D2312A4825B31A82492DDACED4FDA004FCE37B54DAEB0
:206A8000306E855631B46BC0E56095F778DC4B0CA2E11AD5ACFBF3AEFC2DE2E5FA12AD2866
:206AA000677C661EC9A69EF03409D7946593A7E1BD866C1A65874CE8F32615A3546EBE0D03
:206AC0007AEFF5CF95C2017CB6259F986B520C87B43D71C9F7312FEE92B75F89113D95F1DE
:206AE000FDBD0BB34601B993CAC7FD17E249422A67C2F62EA36A43A3C906D92AFECE23103E
:206B0000B282BEC4A889CBF6D0EDE1B900D120E7BC932C556E3EC53132054D80BB091F78CD
:206B2000A9F80CF68031D8A4A006AED5D6E299AF5832B95A2E668252A6EF8653381356F751
:206B40000056FB00BB388A98D53F5B00E5EE009E5D1B1AEC7DB7006D920052442ADC193B4E
:206B60005400E63F0052DB53B374DF3A93CD54BDD0DA2BFDF2C584F34C17A3A442AB265658
:206B80002282CF075701567F214F01281C0C86053D8DEC9F605B3EBA24E391AC8BFF70A616
:206BA0004FD0D3B544B830FD99248CB46957E53C45F78B8FEDAFA2EE8FD5DE4FF36140146C
:206BC000E3E5197DAD21317C6A05E69B9E4FA4093CB865B709721186AD7B656834E846E4F5
:206BE0005793549AE60D0E34F52A0A50F67CE7409FBAF252D9CCC1CE71CBE131CA1B921AC6
:206C000006A26D3D3B92FD23E5634FDF3BF6CA7C6E176427CF4FBC5E1E2ED6D943F7A82DF6
:206C2000D422A53B23394982C291E2165ACB82ED7D2200A056808D57EEC7FDCFDF8C0F5133
:206C4000DD7DE97AAC8B6A03AF3CB394CF323244612D86E3B75D5771380A286AE3D99BCC60
:206C600094F7BA48675F24C426AC567750989AF16CB5A84030F0D84D2B581677E50D07F779
:206C80002A9861D0BBDA4ED54AC4F3FC277E519125283EE533C1B6C4E25B6C35B0FA9B8341
:206CA000C637E54A9BD04E98AA801BE9A55934EC5546A201FCEAC842795D6127889FBB7B22
:206CC000FAFE8778C49B3E1924846B56A24AC6AD9D89FCA618814E44CD8E543C682972C29C
:206CE0003C06B14B27D615CBBA17EE82F87AB32F1855BD5F168B827CCD3EC284C16B4CC231
:206D000065B9140FFA777BC63AA4233C3C31B8AAB159E9044EB8934C7263016861C8DF1E34
:206D200037D353B4CA28BFF8435BB9C05BCC633077CC6D01CA2A9517DF1F45D76961452E20
:206D400033374369F536CECED88C2354DB8290D5C8CA43F0D6ED9B1D00F28DD33E2331FD98
:206D60006E028B31DF8BF6801BBF287826140C98F13FE96410C6AE2AD1E2E122763E3922BF
:206D8000346665DCA6417868DA1359E50027B700DD88203ED521BF00ECF8000D4169A7ECA2
:206DA0007F2000314200A1178C7F1934C100948B009D676AB2743C5593C402BDDCC104C035
:206DC000F27A14F3A73BA380EC388A56E3E3CFE82F01E3BD637F01DC440CF2DE3D68730DE6
:206DE000975B6FDF24C108AC5EB405554FD2C5B5A14D3050C00FF0B4C734E5A2AB278251AB
:206E00006FCAA2551CD558217E049B880BE56CCEAD755057670DBD6E9E665F0940ED2F28B1
:206E2000984F438631E06519428F77209501C76BFCB0336065D75823458F24BB3C70C1F7D6
:206E4000CE5A538CBE33B130E4E99D5987F26B315A19C000F7C7CD840A5EEEEEB3BB89689C
:206E6000154FF390299B9B7773992D7BE596CEFBC659DC75BA4DA91AF82A9838D1D9F30E86
:206E8000AAAD6FB214D550E7B8F0694F14DB778A9882BD97CAAF147572B45E5E04AACA0B35
:206EA000447B42D26C64966799366E030135BB34D17ABB5C4DFE5AF0E4A5EB389B8487AED6
:206EC000A24787C43A65838618B00C446C99D843711DB3C2A88DB1D640BCA7BF86427D46F2
:206EE000FAC76FEE1C954F25027825476EBE2EBC4B3DAF21AA513B0E19CA18B93B786730B9
:206F0000CEEF85C2C2547E5F2167B78D7ACF5FDC649D90CCF266F2F9FA787FF7B3EF7EF48E
:206F2000BE6EC817F59D02CB687F89C2873E3BD3F2E94ECB5FF9EE1CA561A9C365E2BD32E4
:206F4000848BD038E7E2DBBF956BAAFD65EBCF5C4903A4FCA9697781ECEB9357439C6DF79B
:206F600002AF30E830C8273E434A101960D205CBEB67BED05F573FC566418FAF179753BBF8
:206F8000EEC904BB54E0357126B1969B778F73946C12427AB1DBC6689E751B5A2565E11E87
:206FA00059384552F393CDC7DDC62880C323BA4DB58E101B85F08C711AAC692FF84DF8E2FA
:206FC000BDBDCB42E50AA7C621AD6DB8D26B6BE8536B72382C6FBEA59F9D45520444E1F0F9
:206FE000A4EA5E3126E3921747CBCAD144B2FD12A763EEC8B789D348AF17F0ACCFD2DB34E3
:20700000AC5AEA8CD033AA9008E3A1FBD1435D7165AA4196B6F308BB9EC1CF4879816EEA34
:207020008DB8FC139B80FD8FE0159A773BD005DC8BFDBB38918637112EFF43561610672115
:20704000F805D8DE24ED7E6E3FD03819089586913A790E562E9C01796750C48E9D85881A44
:207060004C55AB197B6B58FE6A754EF823950D537B2496E565F126B1B029F98ECF7185A422
:20708000878C3416F575BF38FA4724BD558A1D1414B3AAD941B0A9B5D2B4C930A6F3084205
:2070A0008E9AACA382C1559549450E10D1D4CD890D1FF021D1D3EBD6781F325DDED8923144
:2070C00077C3FD269003EAFAEDDF42458D7B7A79AEC2BE65408ADA600C8ECAD58E093FEBFD
:2070E0000791D6F1B3DF129C6113DE04BE0C391456C0B55BA507D6A9B06C52309FC22810FC
:207100003F9D5B98856D3426AC57D41A686F383C793E3A46437C6F741B55B542BB3726D5EB
:207120007792F40129DDE291B5753E2F0FF1A120C4196C71D9FAB592A6746D4C9DD0343CFC
:20714000AAA3B6DD27E92944557AEC0111647342D9EB56270773BB158BF0B6B8745B3EE685
:20716000238413DB8C4646D587891B28182FB07F2F8E5B2E68583EC25AB61BED27C8F1CBFB
:20718000B301EE11E4080E2F1AC2BD03C68B712F6B9DC28B546B3E766576A836FB7798A952
:2071A0003AAD753C302A9797B1E67904A5949368DCF0AD68A0A9DFF14FD3E6768818BF0C84
:2071C0001B5BCD1B5B29FCA280CC3C64CA080C170A5430246963532ED6C243C4AC1DB2CE67
:2071E00076EF23CA3552990B4AAF434B45ED1D738D97564FD623444E6E56EA1AD283AD7536
:207200001B96D3785A4146076002BB648C5DAE5BA785D0E6B4ACAAD32EDB588836BC2A1B38
:2072200069E09A1EA3ED84A5CA1EB27C1AD9EF01C20A0F4EC039A1E01EAB3D1250A4234C7D
:20724000BDD73DA61CAC79C4DA9D28A485C171FBA3AA87EBED756F00171A8104DFE7E88C3D
:207260004ED990834F183C46D32C0158996DACF4237094C0F4CEEDFDA352B84B4152AF4DD3
:20728000E332694F2A55895D526B25F394614EB9BDDB106D3EE5832DD9EF3DCD778754A639
:2072A000CA39EA41FCD443203FC20FDE7630289F63DB54BA06EC96BB5288BE91D3A9273384
:2072C000254D810E366B84C835B6EA4A9B197B33F70D9A7F94F90A011EB7B235BEE291D7C6
:2072E000587AB10CE9CCAE00681C8D804CCED2FCA3A6E218338A51CCB5495D45FF7902D814
:207300002BAB9421CBF04CA960B65A26825EFFEDF87C63386AE179967F9234B2F13B50797B
:20732000E5EB73A3696C77E70A82EFD3E0730D4E26B4B86104F81158F70F9DE8FFA9C2DA11
:2073400049EC45FEF3F03FC79D6D18F80F557CA6C627243FCC85D1D1830886EC26690583D5
:20736000253DE0DB0CC2E6F955FE226E2372C1700F6C740AC2FA4DBB63E3E35A75C2AA1960
:20738000478FAEC883118C52C4E8716E59307B1AFA2F01C49659564CA4EA63595C1BDA5616
:2073A0001DDFD23A73BD4E5AC9E6F5A4C68EB41DADEB2B6D55E270C04B44C24703E1E58BFD
:2073C000F7C57B905EF2FA1D8322AFFA95E27C06A3C3C4FE5E70401161E89FE7DC1411C35E
:2073E000FB7CCEDAAAA47302572D7225EA9EDFAC38C9366C60A52475C03ED2FE6A03A5D389
:207400003E6810B93652889C05A0431F80DB3094BB3C66D5BB1C39B841F5B72F9BD207356C
:20742000479C1078C0D224E554186A1052025DA40A82A112423AC5DA7F941325A30B57362B
:20744000B17380C0F3D362009ED6066C60FD8B86303408FF4397B637F77938BEC274F65731
:207460000485535DE1AADD2CB1301E0D9C95252659AAA0189F94AF680E6A45D883BAA6FB3F
:20748000128D68D0B8583550DE3E8FEF3F16683355E977D40B49E52D88DE81DA72796C3DB2
:2074A000956A5D5DC9C21335A82415AADEDA7A79A2C77E035E577B2137AF129163FA4EA0FB
:2074C000F84027282D5B87A046C379BC50ED7BD34B465759EC671CE7C2A1FBE218DCC6C458
:2074E0008E89D11D462D15DD481A0F3E4F54DE675083973A57AD37E20F0E12D920A73BCEF2
:207500001DB923F9E9BF9844A43BD3320C90639F831EBAE73A474B6A5F0017422EF72FED02
:20752000328D674D836786091441270A7F939848BCB642017978FEC2952584DBA4D5590D89
:20754000B87AE774C11263A3DCFD1103A7EDD2F44C7957817899EA59ADD0A4C390245DFA9E
:207560003057627B585AC579423ABE6801E37D8C73AECAE4CC099EFC8BEECFC572DF8617EF
:20758000618EB96E0C780541C504B7E679C6D269421646C338F98B90D3A5D1CE668EFBCEAA
:2075A000835637A70B1039E03D32C8987E141C798C0EDA9D9FF62E792926F154660F272449
:2075C00014380E7FCFFE5194032D89D372DD37C3C9BECF1981056C1DD4A72D552C0C458AC9
:2075E000F80FBC567669CE2C478D092E479E943D13BFF53E45BB5BFF610B64FB194781BE0F
:207600007B3928487DF8E85C6A017F955428FF3594EC486199FB40FB57E8734863FA651E8C
:2076200040DB7D03314CBCAB61C32C65E7D0B71E70395BA6D2EC03DE49345847D5BC596CCF
:2076400077BFA5711FD93A7224DA355071702CFFE57E89C49CCDEFEBA3ABA4544FF28B287E
:20766000184E81F300A7186278E06E7A6DC9992592B90116C07924A9EFD94DC93467223F99
:207680009BD5F817081347836932BD774DA7C3E0CC116DDEE8E62EF30326DF3C36D89E44D5
:2076A000111F08A624D01F8DE739775932EED795D41C37662A29653E6B98BF59CD53AA194F
:2076C00081231D5DB088D40FDBC017F7FB41C6D0D044B8D092F05D139CB08A2B6663261860
:2076E000BE00B86877A7830259D2F81C5E9A11F4A97449132A7AEA4726A61941C8260795CF
:2077000021C54F93C69442E886113D03912C50CF27D96873A6B074F27659C3B24FBE46013B
:207720001B68810F3D0839385130833A7D79EEDADB400D25474F73988973FA589C0646EB75
:20774000D4A5B10E2967175A059ADB15117BC500BC41BA2A8749124203FC179541E4F75CE8
:2077600059A4A8302AC2BD5B69788125B19CEB1F478FF7674D715C1085BC998C2AEF144D14
:20778000DD929D9BC93E5E8DB90A8B37CBC7A92E08F496071A73A51E0A06F999199B2741BB
:2077A00033DD281EAE31414867E1266A6EA59866DB786A83D7D8C26EA220B9722DDE8AF58C
:2077C000ADE1011B57FADE0689A348CDCB2ACA6C5B5577642F9A684A410FE40522B362B632
:2077E000F8C7596EB9A6741D58E6EB77B504BF3B0EB07AFFBDE9F80CC5287AAC3712E3257B
:20780000DE039956B2F4F6612193375CD4EA2A9A9BE63B84512FD477785F96D18B840AC3AD
:20782000FE917F3877AC7A639D7FC54A0BDCDE56E8BFC840277082A877AA9CC25028430909
:20784000B2C26341A37F92AC1DC2D2E39A93F564CCC8F651F6945AB30D825F2D0B78E70996
:2078600097910523D452D5B371770DCEF8834853EF7233445ED54456B239C0CA7B70BE8BE3
:207880005A3282043B4D347A40D60431BE7DB644B7FD2FD8FA004F29D3B752FCBB29F2E560
:2078A000AB62FD7AC051EAF4B7B2AC0035150653466461DE280D15A9268FCE7C7EDE1DF158
:2078C00002D8DF4BF7058B0DBAEEF322DDF8EDCA400948BD266663101D2454DA9BBC5A3C1E
:2078E000E7E83C2A2381E4F22B61BDBDF8A090E280EBCCBFEBA914C6B1F06D72EE5B7C0C14
:207900007529727C456F90B4FFDECD5402449B54A4C9F305A4538FBF47F784D1A93C461236
:2079200007D5D9C83865D326DE19C16C7F12DBCBAB5A9201FE3F2AE812E34675D1EDA34A97
:2079400087AA4E84B68244BBF87165EE799F8AEA84AEFC8087F2408FE2829A2BEBD0F68F46
:207960002D5EBB37048645A52E30FF6F1710844EF80C8EDE28F651533F6FA819E3B986B5D9
:2079800094EAA256EFFD01961F50714CDFB588EE1455DFC27B8EC76C9D751F9D23B79453E3
:2079A000AE6FE31665F330B155DCF923965AF9A429EF34881BA5B6E678222406C68A9B7A45
:2079C00099D67145A9B0DC06D2E0A81BABFB53B78EB357A3FE941F0AD8785C104D4FCDF80F
:2079E0007B78C1E51341782762A20F094E25C042C4303EDD33C9D95FFA49D00742832A78A6
:207A00008030B126C1DADC6C6D05F7F69CADBDB03639F2636E73FFD3BB1391CA89B974BAD7
:207A200066AE300D94B3BD69550CC7C7E71E631C9D7C414D2996C788507A36FF927D9514A9
:207A40001E425C588ADAF1842F5C62D6DEA48134CA14981B4C5AAE7946532B8C5B9F1F2D4B
:207A6000BEF699BE4C38B4EE1051F2D4F68238BB1E9EC714D0D806AAC7CDB3880059E6B393
:207A800024565D944172028641374BAF96127CCC4446E5F52F2C05764E8FC202E6E1936F3A
:207AA0009D0CE5EAC0D1F5348A5BFA542719D12C0F92C2448A36CB1E28C7F0837D826E57AE
:207AC000C265CE7DD45AE6D2C57006E32D950106629FCC661E4C15C51709FF579D87C59FF2
:207AE000DCA656681B9155699AECBD766DF6BF924640D7F7269EFCCF12CC6E20E0D4152C2B
:207B00005E54D61B6931887D65B69CFE3FD0E673A6350837C7971DF806B8E0EF07463B253F
:207B2000AF159948812212314F19EB32CE8F2B70261B3FE73A1A78BD44E12AC807A2DEFDB2
:207B4000E8550353F0149A2EB7FFD43C5FEBCF272C1711914E42264B45CB6C33E9B8AF15C6
:207B600021EF16336D18909C74AEDB89CEEB8745816F581115DE684277E64DCCB129371F54
:207B8000F439D3710B786134E2308B54299B0FCCD16362D196D4FD88A2E7E06953763EEEAF
:207BA00025D2F9FDCF5C10DE4631F7947AA465318D250D68E51A35034C45F32AD796E69416
:207BC00069F9B5561DDCCAAF1B7EDFDB2D4CD64BB71BEAE1AA54CE77D105F211A9BC27CEC6
:207BE000BEA6BDC0AA67FCB8FDB40D051C9B1577446007ED8136D3B90DBCC22078C0E0FF3C
:207C000063FA2037F3A62EC5381BE442EE7A0B2634CF194CD93C764D43449BF7A9C3D50B6D
:207C2000893E83C888501F19FF8DAEB9D80753490E83AAC4F831FA6D82ED361332A4646EC5
:207C40003E4B8672F131370ED5122F5B54626495B0ADD1A29586BFA573DF8EF468ECB635BA
:207C6000DC4A3F19C0632F41D38BF6BE5DE30477D465B958EB71718350E34CC4677C0E64F4
:207C8000FA219574EB53C41A391F686EDE13B6AC3D685D841A49648598C0E0EAE2198DB2F5
:207CA0006AD56005388D367D5947C06649F312B3F6D647CCCDA91F1EB68B700638F8A404C0
:207CC000CDFC52705C71E9B4E7B1DA9907D7B9666A13BF3BB997DB4D16F9B073AFEFF133C4
:207CE0009EDC6804A0D4BE0E93C8E113D863755E3F0F3860881F610083D02229ABC14DFBC1
:207D0000CDC14FCF81FBB6917A57B79FFA001D5B0A4327BEBA62DD2886CF93079CA0E68E69
:207D20000CAF53B0C6E45C1D1A2D8B1B6A2412D3E3E03087E373379CE9584312C1B2977847
:207D4000C41C66E4F91C98AFCD8AAE1B5AD293BE4701771272A618B0C7DC68AD8EC3596489
:207D6000F8F8B5E1E501665A93AC997340E898DE9E72637D90AC63DCDADAF4B25D95F88BB4
:207D8000A76F67206756BE9BA9CD3DEB8DA633E2A5C8630D21A52D987604FBAF37B2A777B7
:207DA0003660024D8341F749706EDE50885FCA35BFF83887DF55883E4058D0E67FFB471B4E
:207DC000CDA634523AA98034CA51F6FAE778AB5669DA6E3DAC154B16EDAB3111E2AABB8EE9
:207DE0006C9D2D8FE064CA11D3468FC8E4082591A259E728DA9C4A244C9D9752E356F2BBE7
:207E00005E09A4C9C5FC8790B138D699FD4A083F48D00D68FC60BCC7B03097069E8D2D6926
:207E2000FA2EF88843786705B7FE7B96347C4C44853B9E6E23108C31D68F8D6C083AA994D4
:207E4000C765F8355623DD0DC63679412FC294D9E3F7DC11CE99DCF9F0E4CC32E4171FE67D
:207E60001EF1C5C5431D7D448D95889FC84C814EC96754B6699FD2759C41B6BC21AFAFB213
:207E8000B6BE386F640CA57CAFA88184FE9A73467B6ACD5AF20BFE775BF0A6D13A9B1ABC9E
:207EA000BD414F260E5DE0A3AA8978480810D9CB051329A2FE1EF7B8428937661879E8C85B
:207EC000B76B4A57DAF557334F420566712AA419838A94B0A3D06CC7985A8771FC670D726F
:207EE0004AA121AFB4B1B5F8159029D7D297F000EFEE2C57F2B5C8BC53B9B31A60D4658733
:207F00000BB4686CAD5AD25E5E4F0AF48A3BB18F03EB911524236E479098F0F3003D512C92
:207F2000AD10B191EF2CB7E7432FD49731C22D9ECCC49F90BB01446F2D3BF21E3F10255E76
:207F4000EFDAF50E832EEDF1D52568180A9C89E64882762094EFCD4DCB65C3F6752087C273
:207F60005CAF14F4E8021641F69017E09B7E6D94CF6BAAE87023D7E04428E727BD6243B96B
:207F80001AF412FE3A98693A852B92CE73D552DF71DDABEA48A066CD52A8128D3C862BBC85
:207FA0003042E7C7DA1011E52E5A9EFD396A33DD4ED1566F8410C9083045022100DF3118E2
:207FC0001643831D56F93454BDD8439094E42FC50A7F187B4357CFE4AB4BB4A5D102206EE4
:1F7FE000AB70D152C831A551A278262EF48A5BD50F6E6B4688800D970D50ACC70583897E
:0400000508003401BA
:00000001FF
